:0D0C6900010D010209000F0108000121002A
:100C4800740F251FF8E6B50704750C0122E4F50CAE
:010C58002279
:1008D000E4F51EE51ED395084003020967740F2551
:1008E0001EF8E6B45913C285E50D60047FC8800286
:1008F0007F647E00120A9BD285740F251EF8E6B431
:100900004715C2A7E50D60067F2C7E0180047F9607
:100910007E00120AF3D2A7740F251EF8E6B4421522
:10092000C296E50D60067F907E0180047FC87E0040
:10093000120B4BD296740F251EF8E6B45215C284E2
:10094000E50D60067F587E0280047F2C7E01120B2D
:10095000CFD284E50D60047FFA80027F7D7E001295
:080960000C02051E0208D3225F
:070BFB00120C597F647E001B
:100C0200E4FDFCC3ED9FEC9E5015E4FBFA0BBB0028
:0F0C1200010ABA04F8BBFBF50DBD00010C80E42C
:010C210022B0
:100C5900C2A5C287C2A6120BFED2A5D287D2A622EE
:0D0C7700120BFB120BFB120C59E4F50822C6
:1009F400858A0BAF0B7E00120A90E4F520C3E52034
:100A0400950AE495095042120A4E7C7F7DFF120C30
:100A140036EF5403F50E14601314601914601F2488
:100A2400037022740F2520F876598019740F25203D
:100A3400F876478010740F2520F876528007740FDB
:0A0A44002520F87642052080B42238
:1008000030A2162083FAB287E50D70047F018002C2
:100810007F008F0D2083E980FBD2871209F47FFAD5
:100820007E00120C021208D0E4F51FE51FD39508D4
:100830005078E5217059208112C2857FC8FE120AC6
:100840009BD2857F59120C4875210120A313C2A7A2
:100850007F2C7E01120AF3D2A77F47120C48752124
:1008600001209413C2967F907E01120B4BD2967F8B
:1008700042120C487521012080B8C2847F587E0244
:10088000120BCFD2847F52120C4875210180A3E550
:100890000C64016005E4F5218010E4F50CE4F52119
:1008A0007F7DFE120C02051F8081E5082401FFE414
:1008B00033FEE51FB50715E4B506110508E5086523
:1008C0000A7002E509600302081E8000120C7722FC
:100A9B00758910E4FDFCC3ED9FEE6480F8EC648077
:100AAB00985018758DF2758B3DD28E308FFDC28E9E
:0B0ABB00C28FB2970DBD00010C80DB64
:010AC600220D
:100AC700758910E4FDFCC3ED9FEE6480F8EC64804B
:100AD700985018758DF5758B14D28E308FFDC28E98
:0B0AE700C28FB2970DBD00010C80DB38
:010AF20022E1
:100AF300758910E4FDFCC3ED9FEE6480F8EC64801F
:100B0300985018758DF6758BD1D28E308FFDC28EAD
:0B0B1300C28FB2970DBD00010C80DB0B
:010B1E0022B4
:100B1F00758910E4FDFCC3ED9FEE6480F8EC6480F2
:100B2F00985018758DF8758BB6D28E308FFDC28E9A
:0B0B3F00C28FB2970DBD00010C80DBDF
:010B4A002288
:100B4B00758910E4FDFCC3ED9FEE6480F8EC6480C6
:100B5B00985018758DF9758B1FD28E308FFDC28E04
:0B0B6B00C28FB2970DBD00010C80DBB3
:010B7600225C
:100B7700758910E4FDFCC3ED9FEE6480F8EC64809A
:100B8700985018758DFA758B37D28E308FFDC28EBF
:0B0B9700C28FB2970DBD00010C80DB87
:010BA2002230
:100BA300758910E4FDFCC3ED9FEE6480F8EC64806E
:100BB300985018758DFA758B8AD28E308FFDC28E40
:0B0BC300C28FB2970DBD00010C80DB5B
:010BCE002204
:100BCF00758910E4FDFCC3ED9FEE6480F8EC648042
:100BDF00985018758DFA758BD9D28E308FFDC28EC5
:0B0BEF00C28FB2970DBD00010C80DB2F
:010BFA0022D8
:100C2200E4F584F591F5A4758902758C01D28C12D4
:040C3200080080FB3B
:030000000209688A
:0C096800787FE4F6D8FD7581250209AF08
:100C3600EF8DF0A4A8F0CF8CF0A428CE8DF0A42ED2
:020C4600FE228C
:100A4E00AC22AD23AE24AF257810EC4D4E4F700482
:100A5E007CA57DA5C3EC13FCED13FDEE13FEEF1389
:100A6E00FF5010EC64CCFCED644CFDEE644EFEEFDA
:100A7E0064CEFFD8DF8C228D238E248F25EE547FFB
:0D0A8E00FE228E228F2374A5F524F525226B
:10097400020C22E493A3F8E493A34003F68001F26B
:1009840008DFF48029E493A3F85407240CC8C33384
:10099400C4540F4420C8834004F456800146F6DF53
:1009A400E4800B0102040810204080900C69E47E6E
:1009B400019360BCA3FF543F30E509541FFEE49348
:1009C400A360010ECF54C025E060A840B8E493A30F
:1009D400FAE493A3F8E493A3C8C582C8CAC583CA3A
:1009E400F0A3C8C582C8CAC583CADFE9DEE780BEF2
:010C7600007D
:00000001FF
